:03000000020D35B9
:0C0D3500787FE4F6D8FD758164020D7C27
:080003008F97A7C7C7A7978FCD
:08134700ED93F5907FF47E01A7
:0B134F00EF1FAC0670011E4C70F62270
:0D13B1007FA77EAB7D10DDFEDEFADFF600CB
:0113BE00220C
:10126B007B587A02E4FD9000031213470DEDB40492
:0A127B00F5EB1B70011AEB4A70EA54
:011285002246
:101286007B587A02E4FD9000071213470DEDB40473
:0A129600F5EB1B70011AEB4A70EA39
:0112A000222B
:0B0AB90048002C141409080C3700063C
:04100100E0FD7F8A05
:10100500D290EF54FEFFE4FEEF30E004D2A580025B
:10101500C2A5D2A4C2A4EFC313FF0EEEB408E9E43F
:10102500FEED30E004D2A58002C2A5D2A4C2A4ED93
:0A103500C313FD0EEEB408E9C290EB
:01103F00228E
:10104000D290EF4401FFE4FDEF30E004D2A580022E
:10105000C2A5D2A4C2A4EFC313FF0DEDB408E9E406
:10106000FDEEC313FE30A5054480FE8004EE547FE0
:0E107000FED2A4C2A40DEDB408E7C290AF06F4
:01107E00224F
:100C1900E4FF742C2FF582E43400F583E0FE75F0CF
:100C29000A84FDEE75F00A8474342FF582E43400E9
:100C3900F583E5F0F0EDC454F0FE74342FF582E449
:100C49003400F583E02EF00FEFB408C6E4FD7F8E83
:100C59001210057D807F80121005900035E0FD7F20
:100C69008C121005A3E0FD7F88121005A3E0FD7F1B
:100C79008612100590003B121001900038E0FD7FAC
:100C890084121005A3E0FD7F82121005A3E0FD7F09
:0F0C990080121005A31210017D807F8E021005BE
:100DC1007F8C121040900035EFF07F88121040A305
:100DD100EFF07F86121040A3EFF07F84121040A342
:100DE100EFF07F82121040A3EFF07F80121040EFEE
:100DF100547FA3F07F8A121040A3EFF0E4FF743414
:100E01002FF582E43400F583E0FEC4540FFDEE5467
:100E11000FFE742C2FF582E43400F583EEF0ED75AE
:100E2100F00AA4FE742C2FF582E43400F583E02E41
:060E3100F00FEFB408C849
:010E37002298
:1010BC00C290C2A4E4FD7F80121005E4FD7F821271
:1010CC001005E4FD7F84121005E4FD7F86121005E7
:1010DC00E4FD7F88121005E4FD7F8A121005E4FD03
:0510EC007F8C021005DD
:10135A00AD071FED600BE4FEEEC394FA50F20E8067
:01136A00F78B
:01136B00225F
:10137E00C2B5D2B6D2B47580FFE58020E7FBC2B409
:01138E00223C
:05000E0012135A7F38B7
:1000130012137EC2B5C2B6C2B48F80D2B4C2B422A8
:101122007F1412000E7F6412000E7F3212000E7FB7
:101132000A12135A7F081200137F011200137F064E
:0C1142001200137F0C1200137580FF22B6
:1010F100A907E9540FF97C00ED5401FD6401700466
:10110100744029F9748029F9FF12001312137ED259
:10111100B5C2B6C2B4AF038F80D2B4C2B47580FF7A
:0111210022AB
:050F7B00900042EFF0C0
:100F80001213067F9012107F2000037F0022900032
:100F900042E04440FF12107F2000037F0022121322
:100FA000067F9112107F2000037F00221211C29051
:0F0FB0000043EFF01213A012138F900043E0FFE5
:010FBF00220F
:10130600D2A000D2A10000000000C2A00000000090
:0613160000C2A10000224C
:10138F00C2A000D2A10000000000D2A00000000007
:01139F00222B
:10107F00E4FEEFA806088002C333D8FC30E704D2A1
:10108F00A08002C2A000D2A10000000000C2A10EE9
:10109F00EEB408DE0000D2A00000D2A100000030A4
:0C10AF00A004C2008002D200C2A1000018
:0110BB002212
:1011C200E4FFD2A0FE00C2A10000000000D2A100F4
:1011D20000EF25E0FF30A0010F00000EEEB408E59D
:0411E200C2A10000A6
:0111E60022E6
:1013A000D2A0000000D2A10000000000C2A10000F5
:0113B000221A
:0313DF00DFFE220C
:10133200AE07AF061EEF600C7FF51213DF7FF512CA
:0513420013DF80EE2224
:100CA80053554E4D4F4E5455455745445448554657
:100CB800524953415453554E303132333435363717
:100CC8003839414243444546000001020304050601
:100CD8000708090A0B0C0D0E0F1011121314151624
:100CE8001718191A1B1C1D1E1F2021222324252614
:100CF8002728292A2B2C2D2E2F3031323334353604
:100D08003738393A3B3C3D3E3F40414243444546F3
:100D18004748494A4B4C4D4E4F50515253545556E3
:0D0D28005758595A5B5C5D5E5F6061626305
:100AC400112120323030302F30302F303020303070
:100AD4003020001132202030303A30303A3030208B
:100AE40030302E3043001143443A2D2D2D434D20F8
:100AF400B9E2C7BF3A303030001154C4A3CABD3A7A
:100B040030B4B0C1B1D7B4CCAC3A3100500000021B
:100B14000002010009000801020505000000064268
:100B24000016000042001E00004200260000C10121
:100B34004200100000420012000142001400014172
:100B440000200041002100420028000B4200240044
:100B54000042001C0000420022000042002A000063
:070B6400440018000000002E
:100FC0001211E7120DC1120E3890001CEEF0A3EFC3
:100FD000F07F01120F7BC374FF9F900023F0E49415
:100FE00000900022F0120F179000181204C5D29042
:100FF000759087120502120B78120EA81209AF80A5
:01100000C22D
:100B7800E47F0AFEFDFC900018E0F8A3E0F9A3E08A
:100B8800FAA3E0FBC31204B45018900014E07002FA
:100B9800A3E070047F0180027F00900014E4F0A3BA
:100BA800EFF0E47F14FEFDFC900018E0F8A3E0F9F4
:100BB800A3E0FAA3E0FBD31204B4501DE47F0AFEBD
:100BC800FDFC900018E0F8A3A3A3E0C31204B4400E
:100BD80008900010E4F0A304F0E47F14FEFDFC90FC
:100BE8000018E0F8A3E0F9A3E0FAA3E0FBD31204AD
:100BF800B4401DE47F1EFEFDFC900018E0F8A3A39E
:100C0800A3E01204B45009900010E4F0A37402F0B9
:010C180022B9
:100EA800900016E07002A3E06064E4900021F090E6
:100EB8000021E0FFC39408504BE0FE25E02401F533
:100EC80082E43400F583E0FDEE25E02400F582E4B9
:100ED8003400F583E075F00AA424C1F582E5F03406
:100EE8000AF583E5822DF582E43583F583E493FEE4
:100EF800742C2FF582E43400F583EEF0900021E0A5
:0F0F080004F080AB120C19E4900016F0A3F02255
:1009AF00900014E07004A3E064016003020A7790E2
:1009BF000038E0FDC4540F75F00AA4FFED540F7C0E
:1009CF00002FFFEC35F0FE90002AF0A3EFF0C3EEFE
:1009DF009400400BE0940690002AE09400402A9087
:1009EF00002AE0FEA3E0FFD39417EE94005008EF27
:1009FF009414EE94005012D3EF9410EE9400503EE6
:100A0F00C3EF940CEE94004035D3900023E094BDD7
:100A1F00900022E09400501190001DE0942C900063
:100A2F001CE094015003020AB8900012E07004A376
:100A3F00E064017074900012F0A3F0021286C3906C
:100A4F000023E094AA900022E09400505CC3900031
:100A5F001DE0942C90001CE09401504D900012E08A
:100A6F007002A3E070438037900010E07004A3E0A1
:100A7F0064027015900012E07004A3E06401700925
:100A8F00900012F0A3F0121286900010E07004A3F1
:100A9F00E064017014900012E07002A3E0700A90FD
:0A0AAF000012F0A304F012126B22F3
:1011E70012119C1210BC120C1912131C1213BFE41B
:1011F700900014F0A3F0900010F0A3F0A3F0A30464
:05120700F07580FF22DC
:10050200900035E0FFC4540F900CC093F524EF54D3
:100512000F93F525900036E0FFC4540F900CC09362
:10052200F527EF540F93F528900037E0FFC4540FDE
:10053200900CC093F52AEF540F93F52BE490002012
:10054200F0900020E0FF90003BE075F003A424A8A7
:10055200F582E4340CF583E5822FF582E43583F5E8
:1005620083E493FE742D2FF8A606900020E004F099
:10057200E0B403CD900038E0FFC4540F900CC09358
:10058200F534EF540F93F535900039E0FFC4540F62
:10059200900CC093F537EF540F93F53890003AE082
:1005A200FFC4540F900CC093F53AEF540F93F53BF0
:1005B20090001CE0FAA3E0FB7C007D64FFAE021217
:1005C200038374C02FF582740C3EF583E493F53DEA
:1005D2007C007D64AF03AE021203837E007F0ACFEC
:1005E200CDCFCECCCE12038374C02FF582740C3ED5
:1005F200F583E493F53E90001CE0FEA3E0FF7C004F
:100602007D0A12038374C02DF582740C3CF583E4D9
:1006120093F540E47FBC7E02FDFC900018E0F8A355
:10062200E0F9A3E0FAA3E0FBC31204B450033001E3
:100632000EC20175452D75462D75472D020708E43A
:100642007BE87A03F9F8900018E0FCA3E0FDA3E050
:10065200FEA3E0FF120414AC00AD01AE02AF03E44E
:100662007B64FAF9F812041474C02FF582740C3EFC
:10067200F583E493F53DE47BE87A03F9F8900018FA
:10068200E0FCA3E0FDA3E0FEA3E0FF120414AC0033
:10069200AD01AE02AF03E47B64FAF9F8120414ACC4
:1006A20000AD01AE02AF03E47B0AFAF9F8120414BA
:1006B20074C02FF582740C3EF583E493F53EE47B1F
:1006C200E87A03F9F8900018E0FCA3E0FDA3E0FE4D
:1006D200A3E0FF120414AC00AD01AE02AF03E47B51
:1006E2000AFAF9F8120414AC00AD01AE02AF03E449
:1006F2007B0AFAF9F812041474C02BF582740C3ACE
:10070200F583E493F540900022E0FAA3E0FB7C003D
:100712007D64FFAE0212038374C02FF582740C3E17
:10072200F583E493F5507C007D64AF03AE021203BF
:1007320083AA04AB057D0A7C00AF03AE02120383D9
:1007420074C02FF582740C3EF583E493F5517D0A53
:100752007C00AF03AE0212038374C02DF582740CC9
:100762003CF583E493F552900014E0FEA3E024C02C
:10077200F582740C3EF583E493F559900012E0FE85
:10078200A3E024C0F582740C3EF583E493F563E4A0
:10079200FDFF12120CE4900020F0900020E0FFC355
:1007A2009410501174212FF8E6FF1212BB90002012
:1007B200E004F080E5E4FD7F0112120CE4900020D9
:1007C200F0900020E0FFC39410501174322FF8E62D
:1007D200FF1212BB900020E004F080E5E4FD7F02EE
:1007E20012120CE4900020F0900020E0FFC394105D
:1007F200501174432FF8E6FF1212BB900020E00460
:10080200F080E5E4FD7F0312120CE4900020F090EA
:100812000020E0FFC39410501174542FF8E6FF1229
:1008220012BB900020E004F080E5900026E0700406
:10083200A3E06401706A900028F0A3740BF09000AA
:1008420028E0FEA3E0FFC39410EE94005019743226
:100852002FF8E6FF1213D7900029E004F0700690FB
:100862000028E004F080D7900028E4F0A3740BF095
:10087200900028E0FEA3E0FFC39410EE940050190C
:1008820074432FF8E6FF1213D7900029E004F070AA
:1008920006900028E004F080D7E4900026F0A3F050
:0108A2002233
:030023000208A32D
:1008A300C0E0C083C082C0D075D000C004C005C002
:0308B30006C00775
:1008B60020980302099EC298AF99EFB46D23900069
:1008C60014E07002A3E070047E0180027E00EEFD5B
:1008D6007C00900014ECF0A3EDF0F5993099FDC280
:1008E60099EFB46B0F900010E4F0A304F08F9930E9
:1008F60099FDC299EFB46210900010E4F0A374025F
:10090600F08F993099FDC299EFB4730F900026E4E9
:10091600F0A304F08F993099FDC29990001EE07003
:1009260002A3E06058900024E0FCA3E02400F582D6
:1009360074003CF583EFF0900025E004F07006901B
:100946000024E004F0900024E07004A3E0640F703B
:1009560014900024F0A3F0900016F0A304F0900089
:100966001EE4F0A3F0900024E0FCA3E02400F5824E
:1009760074003CF583E0F5993099FDC299EFB474A3
:100986001790001EE4F0A304F0900016E4F0A30410
:08099600F08F993099FDC29920
:10099E00D007D006D005D004D0D0D082D083D0E0FE
:0109AE003216
:03000B000213E2FB
:0313E200D2013203
:0B13CC00EF1FAC0670011E4C70F622F3
:10114E00E4FDD2A27F08FE1213CCC2A27F507E0015
:10115E001213CCD2A27F0E7E001213CCA2A2E433C5
:08116E00FD7F147E000213CC8A
:10122F00E4FB7D08C2A2EBC313FBD2A230A203449E
:0F123F0080FB7F047E001213CCDDE9AF037E003D
:01124E00227D
:0212A100AD0797
:1012A3007B08C2A2ED1392A27F057E001213CCD25B
:0712B300A2EDC313FDDBEB0C
:0112BA002211
:100E3800E4FAFFFDFC9000421204D1000000001209
:100E4800114E7FCC1212A17F441212A112114E7FB3
:100E5800CC1212A17FBE1212A112122FAA071212CF
:100E68002FAD07EDFCEAFDE41202C9E4FBFA798034
:100E7800783D12011E9000421204C5E4FFFE7D2059
:100E88007C41900042E0F8A3E0F9A3E0FAA3E0FB7C
:0F0E980012011EE4FBFAF9783F12002D1203023B
:010EA7002228
:10131C00758920759850758DFD858D8BE4F587D278
:06132C00AFD2ACD28E220C
:0813D7008F993099FDC29922A3
:041176007F057E0073
:0A117A00EF1FAC0670011E4C601759
:10118400E4900042F0900042E0C394FA50E800007A
:071194000000E004F080EE12
:01119B002231
:1012EF00E4F580C2B5D2B6D2B400000000E5803379
:0612FF009202C2B4A2023B
:0113050022C5
:10124F001212EF40FBC2B5C2B6C2B400008F8000CD
:0C125F00000000D2B400000000C2B42265
:1012BB001212EF40FBD2B5C2B6C2B48F8000000051
:0A12CB0000D2B400000000C2B422FB
:10119C00D2B77F3412124F1211767F3012124F12C7
:1011AC0011767F0C12124F1211767F0112124F7FA3
:0611BC00057E0002117A1D
:10136C00AD071FED600BE4FEEEC3940D50F20E8042
:01137C00F779
:01137D00224D
:10120C00EF70047F808016EFB401047F90800EEFA6
:10121C00B402047F888006EFB403027F98EF2DFFA1
:03122C0002124F5C
:0D13BF00438901E4F58CF58AD2A9D2AF2252
:0C0B6B0042003C000044003E000000007E
:1012D500D2A6000000000000000000000000000091
:0A12E50000000000000000C2A62275
:100F17001212D530A7FDD28C20A7FDC28CAF8CEF63
:100F2700FEAD8A7C00E42DFFEC3E90003CF0A3EF81
:100F3700F0E4F58CF58A90003CE0FCA3E0FDE412B8
:100F470002C97B9A7A9979D9783F12011EE4FBFA94
:100F570079C8784212022712030290003E1204C594
:100F67007F1412133290003EE0FCA3E0FDA3E0FEE5
:040F7700A3E0FF22D2
:1000260002036EE86480F8E933E83360110460F097
:10003600ED33EC337009E8FCE9FDEAFEEBFF220440
:1000460060DED3EB9FEA9EE99DE8C2E78CF0C2F73B
:1000560095F0400CE8CCF8E9CDF9EACEFAEBCFFB07
:1000660012033985D0F05804700320D5B3E8047024
:10007600075002B2D502037892D5EC0460F7E4CCBF
:10008600C0E0C398F8603B94186008400DD0E0FBD0
:10009600020350E4FBFAC9FC8028E830E406E4C910
:1000A600FBE4CAFCE830E305E4C9CACBFCE8540724
:1000B6006010F8C3E913F9EA13FAEB13FBEC13FC2F
:1000C600D8F130F52FC3E49CFCEF9BFFEE9AFEEDD2
:1000D60099FDD0E0FBEF4E4D4C701222DB0302037C
:1000E60075EC2CFCEF33FFEE33FEED33FDED30E720
:1000F600EB020350EF2BFFEE3AFEED39FDD0E0FBAD
:1001060050130BBB0003020378ED13FDEE13FEEF55
:0801160013FFEC13FC0203507F
:10011E00EC4D6011E8497017ED33EC3304600DE4DB
:10012E00FCFFFEFD22E933E8330470F802036E1281
:10013E00033958046009E4CC248150062850090282
:10014E000378284003020375C0E0EB4A7044B9807F
:10015E0006D0E0FB020364EF4E701CBD8008EBFF7F
:10016E00EAFEE9FD80EBE98DF0A4FEE5F002020760
:10017E00E9CDF9EAFEEBFFEF89F0A4FCE5F0CE89BC
:10018E00F0A42EFFE435F0CD89F0A42DFEE435F079
:10019E008067EF4E7005BD80D780C3EF8BF0A4ACA7
:1001AE00F0EE8BF0A42CFCE435F0F8EF8AF0A42CE2
:1001BE00E5F038FCE433CB8DF0A42CFCE5F03BF8F5
:1001CE00EE8AF0A42CFCE5F038F8E433CF89F0A4E5
:1001DE002CFCE5F038CF3400CE89F0A42FFFE5F0EB
:1001EE003EFEE433C98DF0A42EFEE5F039CD8AF043
:1001FE00A42FFFE5F03EFEE43DFD33D0E0FB5007BB
:10020E000BBB000F020378EC2CFCEF33FFEE33FE3A
:06021E00ED33FD02035068
:10022400020378EC5D046005E85904700302036E70
:10023400120339580460F6EC4860F2EC7004FDFED9
:10024400FF22C860DB2481C85009C39860025006AD
:100254000203759850CAF582E9294B4A7005AB82AE
:1002640002036475F0007C1A7880C3EF9BEE9AED6C
:1002740099400DC3EF9BFFEE9AFEED99FDE842F025
:10028400DC23ACF0D0E0FFD0E0FED0E0FDAB822078
:10029400E7101BEB60BAEC2CFCEF33FFEE33FEED02
:1002A40033FD020350E803F830E705C0F075F000B1
:1002B400EF2FFFEE33FEED33FD40B830E7C280AAE6
:1002C40075F020800E75F010800575F0087D007EB5
:1002D400007F003392D530D5031204A6EC334010CE
:1002E400EF33FFEE33FEED33FDEC33FCD5F0ED22BE
:0E02F400E5F0247EA2D513CC92E7CDCEFF22FA
:10030200EDD2E7CD33EC3392D524814006E4FFFEF3
:10031200FDFC22FCE4CFCECDCC24E0501174FF8052
:10032200EDC3CC13CCCD13CDCE13CECF13CF0470EF
:07033200F030D5DE0204A645
:10033900E9D2E7C933E833F892D5EDD2E7CD33EC0A
:0703490033FC5002B2D52283
:10035000EC30E7100FBF000C0EBE00080DBD00040E
:100360000BEB6014A2D5EB13FCED92E7FD2274FFBA
:10037000FCFDFEFF22E480F8A2D574FF13FC7D8013
:03038000E480EF27
:100D4100020FC0E493A3F8E493A34003F68001F2F9
:100D510008DFF48029E493A3F85407240CC8C333B3
:100D6100C4540F4420C8834004F456800146F6DF82
:100D7100E4800B0102040810204080900AB9E47E4F
:100D8100019360BCA3FF543F30E509541FFEE49377
:100D9100A360010ECF54C025E060A840B8E493A33E
:100DA100FAE493A3F8E493A3C8C582C8CAC583CA69
:100DB100F0A3C8C582C8CAC583CADFE9DEE780BE21
:010B7700007D
:10038300BC000BBE0029EF8DF084FFADF022E4CC5E
:10039300F875F008EF2FFFEE33FEEC33FCEE9DEC27
:1003A300984005FCEE9DFE0FD5F0E9E4CEFD22ED6D
:1003B300F8F5F0EE8420D21CFEADF075F008EF2FB7
:1003C300FFED33FD4007985006D5F0F222C398FDA8
:0503D3000FD5F0EA2245
:1003D80075F008758200EF2FFFEE33FECD33CDCCDC
:1003E80033CCC58233C5829BED9AEC99E58298405F
:1003F8000CF582EE9BFEED9AFDEC99FC0FD5F0D63C
:10040800E4CEFBE4CDFAE4CCF9A88222B800C1B965
:100418000059BA002DEC8BF084CFCECDFCE5F0CBA3
:10042800F97818EF2FFFEE33FEED33FDEC33FCEBDC
:1004380033FB10D703994004EB99FB0FD8E5E4F997
:10044800FA227818EF2FFFEE33FEED33FDEC33FC84
:10045800C933C910D7059BE99A4007EC9BFCE99A78
:10046800F90FD8E0E4C9FAE4CCFB2275F010EF2FBD
:10047800FFEE33FEED33FDCC33CCC833C810D707BD
:100488009BEC9AE899400AED9BFDEC9AFCE899F8F8
:0E0498000FD5F0DAE4CDFBE4CCFAE4C8F9228B
:0E04A600C3E49FFFE49EFEE49DFDE49CFC2267
:1004B400EB9FF5F0EA9E42F0E99D42F0E89C45F09E
:0104C4002215
:0C04C500ECF0A3EDF0A3EEF0A3EFF022AA
:1004D100A8828583F0D083D0821204E81204E81246
:1004E10004E81204E8E473E493A3C583C5F0C5836B
:1004F100C8C582C8F0A3C583C5F0C583C8C582C875
:0105010022D7
:00000001FF
