:030000000205787E
:0C057800787FE4F6D8FD75816B0205BFAA
:080BC0001008040202040810F1
:080B3D00ED93F5907FF47E01B9
:0B0B4500EF1FAC0670011E4C70F62282
:0D0BA7007FA77EAB7D10DDFEDEFADFF600DD
:010BB400221E
:100A52007B587A02E4FD900BC0120B3D0DBD04F6EB
:090A6200EB1B70011AEB4A70EB6A
:010A6B002268
:100A6C007B587A02E4FD900BC4120B3D0DBD04F6CD
:090A7C00EB1B70011AEB4A70EB50
:010A8500224E
:0A06D5000808141409080C37000689
:0707970012079EAD177F8AD7
:10079E00D2905307FEE4FEEF30E004D2A58002C2F1
:1007AE00A5D2A4C2A4EFC313FF0EBE08EAE4FEED69
:1007BE0030E004D2A58002C2A5D2A4C2A4EDC31318
:0707CE00FD0EBE08EAC29017
:0107D5002201
:10081200D290430701E4FDEF30E004D2A58002C28A
:10082200A5D2A4C2A4EFC313FF0DBD08EAE4FDEEF6
:10083200C313FE30A505430680800353067FD2A46E
:0A084200C2A40DBD08E9C290AF0684
:01084C002289
:10066E00E4FF74082FF8E6FE75F00A84FDEE75F0CF
:10067E000A8474102FF8A6F0EDC454F0FE74102FF7
:10068E00F8EE26F60FBF08DAE4FD7F8E12079E7D88
:10069E00807F8012079EAD117F8C12079EAD127F58
:1006AE008812079EAD137F86120797AD147F8412B2
:1006BE00079EAD157F8212079EAD167F801207979B
:0706CE007D807F8E02079E74
:10073B007F8C1208128F117F881208128F127F86FE
:10074B001208128F137F841208128F147F821208E3
:10075B00128F157F80120812EF547FF5167F8A12C5
:10076B0008128F17E4FF74102FF8E6FEC4540FFD28
:10077B00EE540FFE74082FF8A606ED75F00AA4FED2
:0B078B0074082FF8EE26F60FBF08DB05
:010796002240
:10088700C290C2A4E4FD7F8012079EE4FD7F82121E
:10089700079EE4FD7F8412079EE4FD7F8612079E74
:1008A700E4FD7F8812079EE4FD7F8A12079EE4FD20
:0508B7007F8C02079E8A
:100B5000AD071FED600BE4FEEEC394FA50F20E8079
:010B6000F79D
:010B61002271
:100B7400C2B5D2B6D2B47580FFE58020E7FBC2B41B
:010B8400224E
:050B1300120B507F38B9
:100B1800120B74C2B5C2B6C2B48F80D2B4C2B422AA
:1008BC007F14120B137F64120B137F32120B137FF6
:1008CC000A120B507F08120B187F01120B187F06AF
:0C08DC00120B187F0C120B187580FF2205
:1008E80053070F5305017C00ED6401700474402F19
:1008F800FF74802FFF120B18120B74D2B5C2B6C248
:0B090800B48B80D2B4C2B47580FF2213
:02084D008F1802
:10084F00120AD17F901207D62000037F0022E518ED
:10085F004440FF1207D62000037F0022120AD17FE7
:10086F00911207D62000037F00221209B18F1912AF
:07087F000B96120B85AF1967
:01088600224F
:100AD100D2A000D2A10000000000C2A000000000CE
:060AE10000C2A10000228A
:100B8500C2A000D2A10000000000D2A00000000019
:010B9500223D
:1007D600E4FEEFA806088002C333D8FC30E704D253
:1007E600A08002C2A000D2A10000000000C2A10E9B
:1007F600BE08DF0000D2A00000D2A100000030A099
:0B08060004C2008002D200C2A100006A
:0108110022C4
:1009B100E4FFD2A0FE00C2A10000000000D2A1000D
:1009C10000EF25E0FF30A0010F00000EBE08E6C2D7
:0309D100A1000082
:0109D4002200
:100B9600D2A0000000D2A10000000000C2A1000007
:010BA600222C
:030BC800DFFE222B
:100B2800AE07AF061EEF600C7FF5120BC87FF512FB
:050B38000BC880EE2255
:1009130053554E4D4F4E54554557454454485546EF
:10092300524953415453554E3031323334353637AF
:09093300383941424344454600B5
:1006DF00112620323030302F30302F303020303054
:1006EF003020001137202030303A30303A3030206F
:1006FF0030302E3043001148B9E2C7BF3A302D32A7
:10070F003535202030303020001159C4A3CABD3AEE
:10071F003020202020202020202020000123000234
:0B072F0021000002240000026A00000C
:10096400120AE77580FF12073B1206048E218F22BC
:100974007F0112084DC374FF9FF525E49400F5240C
:07098400D29012032380DF73
:1004E700E50045007003020577E514C4540F75F065
:1004F7000AA4FFAEF0E514540F7C002FF56BEC3E19
:10050700F56AC39400400AE56B9406E56A940040D7
:100517002AD3E56B9417E56A9400500AE56B9414A7
:10052700E56A94005015D3E56B9410E56A94005082
:1005370026E56B940DE56A9400401CD3E52594AA43
:10054700E5249400402AD3E522942CE52194014028
:100557001F750001020A6CC3E52594AAE5249400DF
:10056700500EC3E522942CE5219401500375000039
:010577002261
:100AE70012098B12088712066E120AFDE4F500F54B
:060AF70000F500F50022ED
:10032300E511C4540F90092B93F529E511540F934C
:10033300F52AE512C4540F93F52CE512540F93F5E7
:100343002DE513C4540F93F52FE513540F93F53094
:10035300E4F523E51775F003A42413F582E43409C7
:10036300F583E5822523F582E43583F583E493FF62
:1003730074322523F8A6070523E523B403D5E51432
:10038300C4540F90092B93F539E514540F93F53AA0
:10039300E515C4540F93F53CE515540F93F53DE56E
:1003A30016C4540F93F53FE516540F93F540AE2151
:1003B300AF227C007D641202C0742B2FF582740976
:1003C3003EF583E493F542AE21AF227C007D6412B7
:1003D30002C07E007F0ACFCDCFCECCCE1202C07436
:1003E3002B2FF58274093EF583E493F543AE21AFD9
:1003F300227C007D0A1202C0742B2DF58274093C05
:10040300F583E493F545AE24AF257C007D641202A9
:10041300C0742B2FF58274093EF583E493F554AE33
:1004230024AF257C007D641202C0AA04AB057D0ABB
:100433007C00AF03AE021202C0742B2FF582740945
:100443003EF583E493F5557D0A7C00AF03AE0212BB
:1004530002C0742B2DF58274093CF583E493F556A1
:10046300742B2500F58274093500F583E493F54D6B
:10047300E4FDFF120A16E4F52374262523F8E6FFAC
:10048300120AA00523E523C3941040EDE4FD7F0188
:10049300120A16E4F52374372523F8E6FF120AA09F
:1004A3000523E523C3941040EDE4FD7F02120A16F1
:1004B300E4F52374482523F8E6FF120AA00523E593
:1004C30023C3941040EDE4FD7F03120A16E4F523E1
:1004D30074592523F8E6FF120AA00523E523C394E4
:0404E3001040ED22B6
:0B0BB500EF1FAC0670011E4C70F62212
:10093C00E4FDD2A27F08FE120BB5C2A27F507E004E
:10094C00120BB5D2A27F0E7E00120BB5A2A2E4331D
:08095C00FD7F147E00020BB5C3
:1009F600E4FB7D08C2A2EBC313FBD2A230A20343E1
:0F0A060003807F047E00120BB5DDE9AF037E0095
:010A150022BE
:020A8600AD07BA
:100A88007B08C2A2ED1392A27F057E00120BB5D29D
:070A9800A2EDC313FDDBEB2F
:010A9F002234
:10060400E4FAFFFDFCF51BF51AF519F51812093C7F
:100614007FCC120A867F44120A8612093C7FCC12D0
:100624000A867FBE120A861209F6AA071209F6ADD7
:1006340007EDFCEAFDE4120206E4FBFA7980783D5A
:100644001200FB8F1B8E1A8D198C18E4FFFE7D207F
:100654007C41AB1BAA1AA919A8181200FBE4FBFAE7
:09066400F9783F12000A12023F6E
:01066D00226A
:100AFD00759850758920758780758DF3758BF3D238
:060B0D00ACD2AFD28E2233
:0409D5007F057E001C
:0A09D900EF1FAC0670011E4C601207
:1009E300E4F518E518C394FA50EC0000000005186C
:0209F30080F191
:0109F50022DF
:100ABA00E4F580C2B5D2B6D2B400000000E58033B6
:060ACA009201C2B4A2017A
:010AD0002203
:100A3600120ABA40FBC2B5C2B6C2B400008F80002B
:0C0A4600000000D2B400000000C2B42286
:100AA000120ABA40FBD2B5C2B6C2B48F80000000B1
:0A0AB00000D2B400000000C2B4221E
:10098B00D2B77F34120A361209D57F30120A3612CB
:10099B0009D57F0C120A361209D57F01120A367F50
:0609AB00057E000209D9DF
:100B6200AD071FED600BE4FEEEC3940D50F20E8054
:010B7200F78B
:010B7300225F
:100A1600EF70047F808013BF01047F90800CBF02BB
:100A2600047F888005BF03027F98EF2DFF020A36F8
:100003000202ABE86480F8E933E83360110460F07E
:10001300ED33EC337009E8FCE9FDEAFEEBFF220463
:1000230060DED3EB9FEA9EE99DE8C2E78CF0C2F75E
:1000330095F0400CE8CCF8E9CDF9EACEFAEBCFFB2A
:1000430012027685D0F05804700320D5B3E804700B
:10005300075002B2D50202B592D5EC0460F7E4CCA6
:10006300C0E0C398F8603B94186008400DD0E0FBF3
:1000730002028DE4FBFAC9FC8028E830E406E4C9F7
:10008300FBE4CAFCE830E305E4C9CACBFCE8540747
:100093006010F8C3E913F9EA13FAEB13FBEC13FC52
:1000A300D8F130F52FC3E49CFCEF9BFFEE9AFEEDF5
:1000B30099FDD0E0FBEF4E4D4C701222DB030202A0
:1000C300B2EC2CFCEF33FFEE33FEED33FDED30E706
:1000D300EB02028DEF2BFFEE3AFEED39FDD0E0FB94
:1000E30050130BBB00030202B5ED13FDEE13FEEF3D
:0800F30013FFEC13FC02028D67
:1000FB00EC4D6011E8497017ED33EC3304600DE4FF
:10010B00FCFFFEFD22E933E8330470F80202AB1268
:10011B00027658046009E4CC248150062850090269
:10012B0002B52840030202B2C0E0EB4A7044B9802A
:10013B0006D0E0FB0202A1EF4E701CBD8008EBFF66
:10014B00EAFEE9FD80EBE98DF0A4FEE5F00201E4A7
:10015B00E9CDF9EAFEEBFFEF89F0A4FCE5F0CE89DF
:10016B00F0A42EFFE435F0CD89F0A42DFEE435F09C
:10017B008067EF4E7005BD80D780C3EF8BF0A4ACCA
:10018B00F0EE8BF0A42CFCE435F0F8EF8AF0A42C05
:10019B00E5F038FCE433CB8DF0A42CFCE5F03BF818
:1001AB00EE8AF0A42CFCE5F038F8E433CF89F0A408
:1001BB002CFCE5F038CF3400CE89F0A42FFFE5F00E
:1001CB003EFEE433C98DF0A42EFEE5F039CD8AF066
:1001DB00A42FFFE5F03EFEE43DFD33D0E0FB5007DE
:1001EB000BBB000F0202B5EC2CFCEF33FFEE33FE22
:0601FB00ED33FD02028D50
:1002010075F020800E75F010800575F0087D007E78
:10021100007F003392D530D503120315EC33401023
:10022100EF33FFEE33FEED33FDEC33FCD5F0ED2281
:0E023100E5F0247EA2D513CC92E7CDCEFF22BD
:10023F00EDD2E7CD33EC3392D524814006E4FFFEB7
:10024F00FDFC22FCE4CFCECDCC24E0501174FF8016
:10025F00EDC3CC13CCCD13CDCE13CECF13CF0470B3
:07026F00F030D5DE0203159B
:10027600E9D2E7C933E833F892D5EDD2E7CD33ECCE
:0702860033FC5002B2D52247
:10028D00EC30E7100FBF000C0EBE00080DBD0004D2
:10029D000BEB6014A2D5EB13FCED92E7FD2274FF7E
:1002AD00FCFDFEFF22E480F8A2D574FF13FC7D80D7
:0302BD00E480EFEB
:10058400020964E493A3F8E493A34003F68001F220
:1005940008DFF48029E493A3F85407240CC8C33378
:1005A400C4540F4420C8834004F456800146F6DF47
:1005B400E4800B01020408102040809006D5E47EFC
:1005C400019360BCA3FF543F30E509541FFEE4933C
:1005D400A360010ECF54C025E060A840B8E493A303
:1005E400FAE493A3F8E493A3C8C582C8CAC583CA2E
:1005F400F0A3C8C582C8CAC583CADFE9DEE780BEE6
:01073A0000BE
:1002C000BC000BBE0029EF8DF084FFADF022E4CC22
:1002D000F875F008EF2FFFEE33FEEC33FCEE9DECEB
:1002E000984005FCEE9DFE0FD5F0E9E4CEFD22ED31
:1002F000F8F5F0EE8420D21CFEADF075F008EF2F7B
:10030000FFED33FD4007985006D5F0F222C398FD6B
:050310000FD5F0EA2208
:0E031500C3E49FFFE49EFEE49DFDE49CFC22F9
:00000001FF
